S013000070726F6A656374446F6F722E7372656386
S11300000C94C8000C94E5000C94E5000C94E500F5
S11300100C94E5000C94E5000C94E5000C94711329
S11300200C94E5000C94E5000C9466020C94E50035
S11300300C94E5000C94E5000C94E5000C94E500A8
S11300400C94EC000C94E5000C94E5000C94E50091
S11300500C94E500DC0FF70FDC0F7510DC0F1510A6
S113006015109F109F109F109F104C10DC0F9F10B5
S11300709F109F109F109F109F109F109F109F1004
S11300809F109F109F109F109F109F10DC0F6E6198
S11300906E00696E660000407A10F35A00A0724E3A
S11300A018090010A5D4E80000E87648170000E419
S11300B00B54020000CA9A3B000000E1F505000061
S11300C080969800000040420F000000A0860100C6
S11300D00000102700000000E80300000000640096
S11300E0000000000A000000000001000000000001
S11300F02C76D888DC674F0823DFC1DFAE59E1B125
S1130100B796E5E3E453C63AE651997696E8E6C233
S11301108426EB898C9B62ED407C6FFCEFBC9C9F3A
S113012040F2BAA56FA5F490055A2AF75C936B6C5C
S1130130F9676DC11BFCE0E40D47FEF520E6B50050
S1130140D0ED902E0300943577050080841E0800BE
S113015000204E0A000000C80C333333330F986E6E
S113016012831141EF8D2114893BE65516CFFEE62B
S1130170DB18D1844B381BF77C1D901DA4BBE424F1
S1130180203284725E228100C9F124ECA1E53D276E
S113019011241FBECFE5D8E0DEBFCDBF13E0A0E63B
S11301A0B0E0E6E9FFE302C005900D92A23DB1077D
S11301B0D9F724E0A2EDB3E001C01D92A934B2073F
S11301C0E1F70E94EE020C94C91F0C940000809188
S11301D0DF039091E00308951F920F920FB60F92E0
S11301E011242F938F939F9324B12093D20385B12D
S11301F08093D30390E0982F8827820F911D9093CA
S1130200E0038093DF039F918F912F910F900FBE96
S11302100F901F90189586B18F6E86B987B1806C48
S113022087B90895AA9A2FEF82E597E0215080407C
S11302309040E1F700C00000AA980895AB9A2FEF10
S113024082E597E0215080409040E1F700C0000033
S1130250AB9808959E990BC0CE9B09C09E9BFECF80
S1130260CF9903C00E941E0108950E9412010895AF
S1130270CF9909C048E650E061E080E00E942C1369
S1130280AC98AD9A089545E750E061E080E00E94A3
S11302902C13AD98AC9A0895CE9907C042E850E06B
S11302A060E080E00E942C13089540E950E060E093
S11302B080E00E942C1308958AE393E00E94D10108
S11302C0089581E08093E30361E08AE393E00E9470
S11302D0C90108951092E30360E08AE393E00E9469
S11302E0C901089584E393E00E94E80108950E94FF
S11302F072019093E2038093E1030E945C01809376
S1130300E30308959C01ADECBCEC0E94D91DBC0133
S113031076956795769567957093E2036093E1030C
S113032084E393E00E94D8010895CE9B21C0CF9925
S113033005C080E090E00E945E1308950E945B1364
S113034090E02091E1033091E20382179307A0F03B
S1130350AA9A2FEF82E597E0215080409040E1F780
S113036000C00000AA9880E090E00E945E13089507
S113037080E090E00E945E1308958091E303811170
S11303800E9495010E944C010E9438010E942A019A
S11303900895E199FECF9FBB8EBB6DBBE29AE19AB3
S11303A00895E199FECF9FBB8EBBE09A8DB308956B
S11303B01F93CF93DF93EC01172F0E94C901612F84
S11303C0CE0101960E94C901DF91CF911F9108953A
S11303D00F931F93CF93DF938C0101960E94D10159
S11303E0C82FD0E0DC2FCC270000C8010E94D10127
S11303F09E01280F311DC901DF91CF911F910F91EB
S11304000895B49B02C09F990DC0B49902C09F9BEC
S11304100BC0B49902C09F9909C0B49B02C09F9BB2
S113042007C0089583E0089580E0089581E0089569
S113043082E0089583B78A7F83BF089583B7856078
S113044083BF089583B7886083BF89B7826089BFFB
S113045080E18CBF83B7856083BF08959091ED03DD
S1130460911119C09091E403992349F0E5EEF3E06A
S113047021E030E0A9019191911108C002C040E04F
S113048050E0FA01EC51FC4F808308952F5F3F4FF9
S11304902A30310579F708958091E4038823A9F07F
S11304A0E4EEF3E02EEE33E09081992351F099309D
S11304B039F09181992311F0908303C0108201C017
S11304C010823196E217F30779F708951F920F927D
S11304D00FB60F9211242F933F934F935F936F9313
S11304E07F938F939F93AF93BF93CF93EF93FF9398
S11304F0CD9910C081E08093D6038091D703909169
S1130500D8038E36910550F401969093D8038093C6
S1130510D70304C08091D6038823B1F0CD9B14C0C7
S11305208091D7039091D8038536910520F081E01E
S11305300E942E0203C082E00E942E021092D80371
S11305401092D7031092D6030E940102C82F809301
S1130550D5038091D4038C2B873019F08B3029F08C
S113056007C083E00E942E0203C084E00E942E0292
S1130570CC0FCC0FC093D403FF91EF91CF91BF91D7
S1130580AF919F918F917F916F915F914F913F9127
S11305902F910F900FBE0F901F9018950E944C0240
S11305A0089589B385FB882780F991E08927089508
S11305B00E9422020E941A02089588E08ABB80EEFB
S11305C08BBB87E087BB88E188BB8FE384BB80EC6F
S11305D085BB8EEF81BB83E082BB0895CF93DF930D
S11305E0CDB7DEB72A970FB6F894DEBF0FBECDBFE6
S11305F02FEF84E39CE0215080409040E1F700C05D
S113060000000E94DD020E949B130E94031280E1FD
S113061090E00E94AE130E94AA0F0E94BC120E9496
S113062063130E940B010E94FA150E94D8020E94D3
S1130630770178942FEF86E191E12150804090403A
S1130640E1F700C000004EE950E063E083E00E945F
S11306502C132FEF86E191E1215080409040E1F787
S113066000C000000E94BC1210E00DEC0F2EFDEE45
S1130670CF2EF0E0DF2EF02DCE0101967C01CE9B33
S113068026C04EEA50E062E080E00E942C13CF9B2B
S113069006C00E94D710811102C00E9412010E945C
S11306A05F11CF991AC00E945F11882349F043EC6F
S11306B050E062E080E00E942C130E941E010DC0F5
S11306C04EEA50E062E080E00E942C1306C048ED40
S11306D050E062E080E00E942C130E94BD01109F54
S11306E0812D1124869586958695880F982F990FCC
S11306F0990F890F912F981B923009F0C0C00E9466
S1130700AF1681E00E94BA169F938F937F936F93E5
S1130710DF92CF92FF92EF920E94491F43EF50E085
S113072065E080E00E942C13A70165E084E00E944C
S11307302C1382E00E94BA169F938F937F936F933A
S1130740DF92CF92FF92EF920E94491F48EF50E050
S113075066E080E00E942C13A70166E084E00E941A
S11307602C1383E00E94BA169F938F937F936F9309
S1130770DF92CF92FF92EF920E94491F4DEF50E01B
S113078067E080E00E942C13A70167E084E00E94E8
S11307902C1384E00E94BA169F938F937F936F93D8
S11307A0DF92CF92FF92EF920E94491F0FB6F89406
S11307B0DEBF0FBECDBF42E051E064E080E00E94A6
S11307C02C13A70164E084E00E942C130E94631799
S11307D08823E9F146E051E064E08EE00E942C13A6
S11307E081E00E946617882339F04DE051E065E00E
S11307F08CE00E942C1306C044E151E065E08CE0DB
S11308000E942C1382E00E946617882339F04DE081
S113081051E066E08CE00E942C1306C044E151E0F4
S113082066E08CE00E942C1383E00E946617882304
S113083039F04DE051E067E08CE00E942C131FC0BA
S113084044E151E067E08CE00E942C1318C04BE1B6
S113085051E064E08EE00E942C1344E151E065E035
S11308608CE00E942C1344E151E066E08CE00E948D
S11308702C1344E151E067E08CE00E942C130E94A9
S1130880D102882331F00E94D1028111FCCF0E9451
S1130890DE0E1F5F183C08F4F2CE10E0F0CE2F926B
S11308A03F924F925F927F928F929F92AF92BF92AC
S11308B0CF92DF92EF92FF920F931F93CF93DF9328
S11308C000D000D01F92CDB7DEB780E090E00E9448
S11308D05E130E94BC1288E393E00E94E8015C016D
S11308E0BF928F9382E291E09F938F938E010F5F6B
S11308F01F4F1F930F930E94491FA80166E088E0D1
S11309000E942C1345E251E060E083E00E942C1326
S113091044E351E061E088E00E942C130F900F90B3
S11309200F900F900F900F9010E0812C912C512C70
S11309300F2EF2E2EF2EF1E0FF2EF02DCE01019604
S11309401C010F2EF4E64F2EF02D0E945B13833012
S113095009F495C0C52CD12C1F925F92FF92EF929F
S11309603F922F920E94491FA10161E0689477246D
S113097073F8710E872D0E942C1349E151E062E057
S113098087E0810F0E942C1348E351E062E0872D39
S11309900E942C130E941A020E94CE028093EF033D
S11309A00E941E028091EF030F900F900F900F9002
S11309B00F900F90833041F45520B9F180E090E01E
S11309C00E945E135A9431C0843049F498E095151E
S11309D060F180E090E00E945E13539426C0823060
S11309E021F580E090E00E945E13111108C04C9C38
S11309F0C0014D9C900D1124880E991E14C0113015
S1130A0071F4C601880F991FCC0CDD1CCC0CDD1CC5
S1130A10CC0CDD1CC80ED91E8C0C9D1C04C01230DD
S1130A2011F4850C911C1F5F512C8FE39CE90197F5
S1130A30F1F700C00000133008F487CF0E94BC1205
S1130A408A149B0441F44AE351E063E083E00E948A
S1130A502C1311E007C048E451E063E083E00E94F6
S1130A602C1310E09FEF26E181E19150204080405B
S1130A70E1F700C000000E94BC12812F01C080E099
S1130A800F900F900F900F900F90DF91CF911F91C7
S1130A900F91FF90EF90DF90CF90BF90AF909F9019
S1130AA08F907F905F904F903F902F9008956F921A
S1130AB07F928F929F92AF92BF92CF92DF92EF92EA
S1130AC0FF920F931F93CF93DF9300D000D01F9218
S1130AD0CDB7DEB780E090E00E945E130E94BC12A6
S1130AE049E551E060E083E00E942C1344E351E0C7
S1130AF061E088E00E942C1300E0812C912C712C81
S1130B000F2EF2E2CF2EF1E0DF2EF02DCE01019672
S1130B107C010F2EF4E66F2EF02D0E945B138330C0
S1130B2009F413C1A72CB12C1F927F92DF92CF92AC
S1130B30FF92EF920E94491FA70161E018E0100F95
S1130B40812F0E942C1349E151E062E087E0800F7D
S1130B500E942C1348E351E062E0812F0E942C1381
S1130B600E941A020E94CE028093EF030E941E028A
S1130B708091EF030F900F900F900F900F900F90B4
S1130B80833041F47720B9F180E090E00E945E1355
S1130B907A9431C0843049F498E0971560F180E08C
S1130BA090E00E945E13739426C0823021F580E0A9
S1130BB090E00E945E13011108C06A9CC0016B9C06
S1130BC0900D1124880E991E14C0013071F4C501D2
S1130BD0880F991FAA0CBB1CAA0CBB1CAA0CBB1C1B
S1130BE0A80EB91E8A0C9B1C04C0023011F4870C99
S1130BF0911C0F5F712C8FE39CE90197F1F700C002
S1130C000000033008F489CF9F928F9282E291E032
S1130C109F938F938E010F5F1F4F1F930F930E941B
S1130C20491FA80161E088E00E942C1382E00E9421
S1130C30D6124BE651E063E082E00E942C134DE7AC
S1130C4051E064E084E00E942C1341E851E064E048
S1130C508CE00E942C130F900F900F900F900F9028
S1130C600F9011E001E0F12C69C0112369F048E311
S1130C7051E064E083E00E942C1349E151E064E018
S1130C808BE00E942C130CC049E151E064E083E046
S1130C900E942C1348E351E064E08BE00E942C1383
S1130CA00E941A020E94CE028093EF030E941E0249
S1130CB08091EF03833049F480E090E00E945E135A
S1130CC0802F11118F2D182F33C0843049F480E008
S1130CD090E00E945E13802F11118F2D182F28C0D1
S1130CE0823031F580E090E00E945E130E94BC12D5
S1130CF0112361F0B40188E393E00E94D80146E82F
S1130D0051E063E082E00E942C1306C046E951E002
S1130D1063E082E00E942C139FEF23ED80E3915067
S1130D2020408040E1F700C000000E94BC120DC0CA
S1130D308FE39CE90197F1F700C000000E945B1368
S1130D40833009F092CF0E94BC120F900F900F9045
S1130D500F900F90DF91CF911F910F91FF90EF9023
S1130D60DF90CF90BF90AF909F908F907F906F90C7
S1130D700895AF92BF92CF92DF92EF92FF920F93BA
S1130D801F93CF93DF9300D000D01F92CDB7DEB76F
S1130D9080E090E00E945E130E94BC1249EA51E098
S1130DA060E080E00E942C1346E052E061E086E0BF
S1130DB00E942C138CE293E00E94D101182F8DE243
S1130DC093E00E94D101682F70E080E090E00E94DF
S1130DD05D1920E030E048EC52E40E94B3186B0146
S1130DE07C01612F70E080E090E00E945D199B011E
S1130DF0AC01C701B6010E944718A62EB72EC82E13
S1130E00D92E0F2EFDEBEF2EF1E0FF2EF02D8E01EB
S1130E100F5F1F4F62C0DF92CF92BF92AF92FF92DB
S1130E20EF921F930F930E94491FA80163E087E08C
S1130E300E942C130E941A020E94CE028093EF0398
S1130E400E941E022091EF030FB6F894DEBF0FBE7E
S1130E50CDBF233099F480E090E00E945E132AE035
S1130E6037ED43E25CE36A2D7B2D8C2D9D2D0E9492
S1130E704618A62EB72EC82ED92E29C0243099F490
S1130E8080E090E00E945E132AE037ED43E25CE3E9
S1130E906A2D7B2D8C2D9D2D0E944718A62EB72ED2
S1130EA0C82ED92E14C0223049F46A2D7B2D8C2DE6
S1130EB09D2D0E94D8170E94BC1216C0213039F40F
S1130EC080E090E00E945E130E94BC120DC08FE38C
S1130ED09CE90197F1F700C000000E945B13833086
S1130EE009F099CF0E94BC120F900F900F900F90B1
S1130EF00F90DF91CF911F910F91FF90EF90DF90B2
S1130F00CF90BF90AF900895AF92BF92CF92DF92EF
S1130F10EF92FF920F931F93CF93DF9300D000D0F3
S1130F201F92CDB7DEB780E090E00E945E130E946E
S1130F30BC1249EA51E060E080E00E942C1349E1D0
S1130F4052E061E086E00E942C138EE293E00E945E
S1130F50D101182F8FE293E00E94D101682F70E035
S1130F6080E090E00E945D1920E030E048EC52E41B
S1130F700E94B3186B017C01612F70E080E090E067
S1130F800E945D199B01AC01C701B6010E9447187C
S1130F90A62EB72EC82ED92E0F2EFDEBEF2EF1E084
S1130FA0FF2EF02D8E010F5F1F4F66C0DF92CF9290
S1130FB0BF92AF92FF92EF921F930F930E94491F2B
S1130FC0A80163E086E00E942C130E941A020E948A
S1130FD0CE028093EF030E941E022091EF030FB60E
S1130FE0F894DEBF0FBECDBF233099F480E090E0CB
S1130FF00E945E132AE037ED43E25CE36A2D7B2D09
S11310008C2D9D2D0E944618A62EB72EC82ED92EA3
S11310102DC0243099F480E090E00E945E132AE011
S113102037ED43E25CE36A2D7B2D8C2D9D2D0E94D0
S11310304718A62EB72EC82ED92E18C0223069F410
S113104080E090E00E945E136A2D7B2D8C2D9D2DF7
S11310500E940F180E94BC1216C0213039F480E09F
S113106090E00E945E130E94BC120DC08FE39CE9C5
S11310700197F1F700C000000E945B13833009F070
S113108095CF0E94BC120F900F900F900F900F906D
S1131090DF91CF911F910F91FF90EF90DF90CF9050
S11310A0BF90AF900895AF92BF92CF92DF92EF922C
S11310B0FF920F931F93CF93DF9300D000D01F9222
S11310C0CDB7DEB780E090E00E945E130E94BC12B0
S11310D042EC51E060E083E00E942C1381E00E9426
S11310E0BA16A62EB72EC82ED92E0F2EFDEBEF2E34
S11310F0F1E0FF2EF02D8E010F5F1F4F69C0DF92CC
S1131100CF92BF92AF92FF92EF921F930F930E94E0
S1131110491FA80161E086E00E942C130E941A0274
S11311200E94CE028093EF030E941E022091EF03DF
S11311300FB6F894DEBF0FBECDBF233099F480E024
S113114090E00E945E132AE037ED43E25CE36A2DEF
S11311507B2D8C2D9D2D0E944618A62EB72EC82EB1
S1131160D92E30C0243099F480E090E00E945E13C0
S11311702AE037ED43E25CE36A2D7B2D8C2D9D2D17
S11311800E944718A62EB72EC82ED92E1BC0223077
S113119081F480E090E00E945E1341E06A2D7B2D93
S11311A08C2D9D2D0E9477170E94FA150E94BC1267
S11311B016C0213039F480E090E00E945E130E9452
S11311C0BC120DC08FE39CE90197F1F700C0000049
S11311D00E945B13833009F092CF0E94BC120F90DF
S11311E00F900F900F900F90DF91CF911F910F915F
S11311F0FF90EF90DF90CF90BF90AF900895AF92A3
S1131200BF92CF92DF92EF92FF920F931F93CF93EF
S1131210DF9300D000D01F92CDB7DEB780E090E01E
S11312200E945E130E94BC1242ED51E060E083E034
S11312300E942C1382E00E94BA16A62EB72EC82E46
S1131240D92E0F2EFDEBEF2EF1E0FF2EF02D8E01A7
S11312500F5F1F4F69C0DF92CF92BF92AF92FF9290
S1131260EF921F930F930E94491FA80161E086E04B
S11312700E942C130E941A020E94CE028093EF0354
S11312800E941E022091EF030FB6F894DEBF0FBE3A
S1131290CDBF233099F480E090E00E945E132AE0F1
S11312A037ED43E25CE36A2D7B2D8C2D9D2D0E944E
S11312B04618A62EB72EC82ED92E30C0243099F445
S11312C080E090E00E945E132AE037ED43E25CE3A5
S11312D06A2D7B2D8C2D9D2D0E944718A62EB72E8E
S11312E0C82ED92E1BC0223081F480E090E00E94E9
S11312F05E1342E06A2D7B2D8C2D9D2D0E94771765
S11313000E94FA150E94BC1216C0213039F480E004
S113131090E00E945E130E94BC120DC08FE39CE912
S11313200197F1F700C000000E945B13833009F0BD
S113133092CF0E94BC120F900F900F900F900F90BD
S1131340DF91CF911F910F91FF90EF90DF90CF909D
S1131350BF90AF900895AF92BF92CF92DF92EF9279
S1131360FF920F931F93CF93DF9300D000D01F926F
S1131370CDB7DEB780E090E00E945E130E94BC12FD
S113138042EE51E060E083E00E942C1383E00E946F
S1131390BA16A62EB72EC82ED92E0F2EFDEBEF2E81
S11313A0F1E0FF2EF02D8E010F5F1F4F69C0DF9219
S11313B0CF92BF92AF92FF92EF921F930F930E942E
S11313C0491FA80161E086E00E942C130E941A02C2
S11313D00E94CE028093EF030E941E022091EF032D
S11313E00FB6F894DEBF0FBECDBF233099F480E072
S11313F090E00E945E132AE037ED43E25CE36A2D3D
S11314007B2D8C2D9D2D0E944618A62EB72EC82EFE
S1131410D92E30C0243099F480E090E00E945E130D
S11314202AE037ED43E25CE36A2D7B2D8C2D9D2D64
S11314300E944718A62EB72EC82ED92E1BC02230C4
S113144081F480E090E00E945E1343E06A2D7B2DDE
S11314508C2D9D2D0E9477170E94FA150E94BC12B4
S113146016C0213039F480E090E00E945E130E949F
S1131470BC120DC08FE39CE90197F1F700C0000096
S11314800E945B13833009F092CF0E94BC120F902C
S11314900F900F900F900F90DF91CF911F910F91AC
S11314A0FF90EF90DF90CF90BF90AF90089581E0D0
S11314B08093EE0380E090E00E945E130E94BC12D1
S11314C0C0C048E351E06091EE0380E00E942C1319
S11314D042EF51E060E084E00E942C134BEF51E0B6
S11314E061E082E00E942C134EE052E062E082E070
S11314F00E942C1340E252E063E082E00E942C132D
S113150041E352E064E082E00E942C1342E452E0A2
S113151065E082E00E942C1343E552E066E082E03D
S11315200E942C130E941A020E94CE028093EF03A1
S11315300E941E028091EF038230E1F580E090E08A
S11315400E945E138091EE03813031F40E94B9064B
S113155081E08093EE0312C0823031F40E9484074C
S113156082E08093EE0314C08091EE03833031F463
S11315700E94530883E08093EE0314C08091EE032D
S1131580843031F40E94FF0884E08093EE0353C05A
S11315908091EE03853031F40E94AB0985E080939D
S11315A0EE0349C08091EE03863009F044C00E94E6
S11315B0BC1208958330D1F48091EE038230D8F1C7
S11315C080E090E00E945E1349E151E06091EE03F7
S11315D080E00E942C136091EE0361506093EE034F
S11315E048E351E080E00E942C1325C08430D1F4FC
S11315F08091EE038630F8F480E090E00E945E1360
S113160049E151E06091EE0380E00E942C13609167
S1131610EE036F5F6093EE0348E351E080E00E94C5
S11316202C1309C0813039F480E090E00E945E13ED
S11316300E94BC1208958FE19EE40197F1F700C067
S113164000000E945B13833009F03BCF0E94BC1260
S11316500895DF92EF92FF920F931F93CF93DF933E
S11316601F92CDB7DEB780E090E00E945E130E9427
S1131670BC1249E552E060E083E00E942C134CE682
S113168052E061E080E00E942C13DD24D3940F2EFD
S1131690F2E2EF2EF1E0FF2EF02D8E010F5F1F4FCF
S11316A066C01F92DF92FF92EF921F930F930E94E6
S11316B0491FA80161E08DE00E942C130E941A02C8
S11316C00E94CE028093EF030E941E028091EF03DA
S11316D00F900F900F900F900F900F90833049F45C
S11316E021E02D15F0F580E090E00E945E13DA947D
S11316F038C0843049F482E08D1598F180E090E0A0
S11317000E945E13D3942DC0823011F580E090E0E6
S11317100E945E138D2D0E948211882339F049E7BF
S113172052E063E080E00E942C1306C04BE852E0D4
S113173063E080E00E942C139FEF29E688E191503A
S113174020408040E1F700C000000E94BC1216C097
S1131750813039F480E090E00E945E130E94BC1254
S11317600DC08FE097E20197F1F700C000000E94DE
S11317705B13833009F095CF0E94BC120F90DF9168
S1131780CF911F910F91FF90EF90DF900895DF921A
S1131790EF92FF920F931F93CF93DF931F92CDB7D6
S11317A0DEB780E090E00E945E130E94BC124DE917
S11317B052E060E082E00E942C134EE953E061E0C5
S11317C086E00E942C13DD24D3940F2EF2E2EF2E38
S11317D0F1E0FF2EF02D8E010F5F1F4F66C01F92A8
S11317E0DF92FF92EF921F930F930E94491FA8016B
S11317F062E08AE00E942C130E941A020E94CE0228
S11318008093EF030E941E028091EF030F900F90CC
S11318100F900F900F900F90833049F421E02D1515
S1131820F0F580E090E00E945E13DA9438C08430D2
S113183049F482E08D1598F180E090E00E945E13F7
S1131840D3942DC0823011F580E090E00E945E13A5
S11318508D2D0E94F510882339F040EB52E063E0AF
S113186080E00E942C1306C043EC52E063E080E069
S11318700E942C139FEF29E688E19150204080407C
S1131880E1F700C000000E94BC1216C0813039F498
S113189080E090E00E945E130E94BC120DC08FE0B5
S11318A097E20197F1F700C000000E945B138330B8
S11318B009F095CF0E94BC120F90DF91CF911F9138
S11318C00F91FF90EF90DF90089581E08093EE03F5
S11318D080E090E00E945E130E94BC129DC048E329
S11318E051E06091EE0380E00E942C1346ED52E03B
S11318F060E083E00E942C1346EE52E061E082E057
S11319000E942C1349EF52E062E082E00E942C1303
S11319104BE053E063E082E00E942C1343E552E085
S113192064E082E00E942C130E941A020E94CE02FC
S11319308093EF030E941E028091EF03823029F509
S113194080E090E00E945E138091EE03813031F4D8
S11319500E94290B81E08093EE030FC0823031F4A2
S11319600E94C70B82E08093EE0350C08091EE0387
S1131970833019F48093EE0349C08091EE038430E0
S113198009F044C00E94BC1208958330D1F48091C0
S1131990EE038230D8F180E090E00E945E1349E1CA
S11319A051E06091EE0380E00E942C136091EE03FD
S11319B061506093EE0348E351E080E00E942C13F1
S11319C025C08430D1F48091EE038430F8F480E0B3
S11319D090E00E945E1349E151E06091EE0380E0E3
S11319E00E942C136091EE036F5F6093EE0348E353
S11319F051E080E00E942C1309C0813039F480E06A
S1131A0090E00E945E130E94BC1208958FE19EE450
S1131A100197F1F700C000000E945B13833009F0C6
S1131A205ECF0E94BC1208956F927F928F929F9214
S1131A30AF92BF92CF92DF92EF92FF920F931F93D8
S1131A40CF93DF9300D000D000D0CDB7DEB780E0D5
S1131A5090E00E945E130E94BC124BE153E060E0F0
S1131A6083E00E942C130E9472016C01CC0CDD1CDB
S1131A70CC0CDD1CC80ED91E0F2EFCE37F2EF02DDE
S1131A8002E211E05E0124E0A20EB11CCE01019637
S1131A904C01A7C09601A9E8B8E80E94D91D7C01B1
S1131AA0F694E794F694E794F694E794F694E7941E
S1131AB0F694E7947E9CC0017F9C900D1124281B12
S1131AC0390BC901622E99279F938F931F930F930C
S1131AD0BF92AF920E94491FC70199279F938F938A
S1131AE01F930F939F928F920E94491F0FB6F894F1
S1131AF0DEBF0FBECDBF99E09E1560F049E151E015
S1131B0061E084E00E942C13A40161E085E00E945E
S1131B102C1305C0A40161E084E00E942C1348E268
S1131B2053E061E086E00E942C1329E0261560F062
S1131B30A50161E08BE00E942C1349E151E061E0D2
S1131B408AE00E942C1305C0A50161E08AE00E948E
S1131B502C134CE253E061E08CE00E942C130E94B1
S1131B601A020E94CE028093EF030E941E0280910B
S1131B70EF03833061F436E0C316D10460F180E0F2
S1131B8090E00E945E1385E0C81AD10824C0843016
S1131B9069F494E8C91693E0D906E8F480E090E08B
S1131BA00E945E1325E0C20ED11C15C0823051F490
S1131BB080E090E00E945E13C6010E9482010E94B0
S1131BC0BC1216C0813039F480E090E00E945E13AC
S1131BD00E94BC120DC08FE097E20197F1F700C09C
S1131BE000000E945B13833009F054CF0E94BC12A2
S1131BF026960FB6F894DEBF0FBECDBFDF91CF910E
S1131C001F910F91FF90EF90DF90CF90BF90AF9016
S1131C109F908F907F906F90089581E08093EE0362
S1131C2080E090E00E945E130E94BC12BFC048E3B3
S1131C3051E06091EE0380E00E942C1340E353E0F6
S1131C4060E081E00E942C1342E453E061E082E012
S1131C500E942C1342E553E062E082E00E942C13C0
S1131C6043E653E063E082E00E942C1343E552E034
S1131C7064E082E00E942C130E941A020E94CE02A9
S1131C808093EF030E941E028091EF03823009F0DB
S1131C9046C080E090E00E945E138091EE038130A4
S1131CA031F40E94140D81E08093EE0330C0823041
S1131CB0A9F40E9461010E94BC1245E753E063E06D
S1131CC080E00E942C132FEF83ED90E3215080409D
S1131CD09040E1F700C000000E94BC128091EE0326
S1131CE08330A9F40E946A010E94BC1244E853E0C4
S1131CF063E080E00E942C132FEF83ED90E32150EA
S1131D0080409040E1F700C000000E94BC12809126
S1131D10EE03843009F044C00E94BC12089583305D
S1131D20D1F48091EE038230D8F180E090E00E94FB
S1131D305E1349E151E06091EE0380E00E942C13B0
S1131D406091EE0361506093EE0348E351E080E05C
S1131D500E942C1325C08430D1F48091EE0384308A
S1131D60F8F480E090E00E945E1349E151E0609154
S1131D70EE0380E00E942C136091EE036F5F60938A
S1131D80EE0348E351E080E00E942C1309C0813047
S1131D9039F480E090E00E945E130E94BC12089522
S1131DA08FE19EE40197F1F700C000000E945B13ED
S1131DB0833009F03CCF0E94BC12089581E08093E7
S1131DC0EE0380E090E00E945E130E94BC120E9429
S1131DD01E020E944F048111B3C00E94BC120E94D3
S1131DE01A02089544E953E060E088E00E942C134D
S1131DF049E953E061E082E00E942C1349EA53E090
S1131E0062E082E00E942C1342EB53E063E082E044
S1131E100E942C1344EC53E064E082E00E942C13F3
S1131E2043E552E065E082E00E942C1348E351E070
S1131E306091EE0380E00E942C130E941A020E941B
S1131E40CE028093EF030E941E028091EF03823042
S1131E50B9F580E090E00E945E138091EE0381303A
S1131E6031F40E94650C81E08093EE0312C082304D
S1131E7031F40E94570A82E08093EE0318C08091E7
S1131E80EE03833031F40E940D0E83E08093EE0361
S1131E9017C08091EE03843051F40E94570584E00A
S1131EA08093EE038091EF03833039F511C0809164
S1131EB0EE03853029F40E941A020E94BC12089590
S1131EC08091EF038330C9F48091EE03823090F166
S1131ED080E090E00E945E1349E151E06091EE03DE
S1131EE080E00E942C136091EE0361506093EE0336
S1131EF048E351E080E00E942C138091EF0384308A
S1131F00C9F48091EE038530A8F480E090E00E944B
S1131F105E1349E151E06091EE0380E00E942C13CE
S1131F206091EE036F5F6093EE0348E351E080E05D
S1131F300E942C138FE19EE40197F1F700C000008A
S1131F400E945B13833009F04DCF0E94BC120E94A3
S1131F501A020895E0EFF3E08CE094E01192E817A0
S1131F60F907E1F70895BF92CF92DF92EF92FF92C3
S1131F700F931F93CF93DF93D82EC62E7A01B22EE0
S1131F80C0E6D0E006E610E089910E94B6130C1773
S1131F901D07D1F781E00E94B61380E00E94B613BA
S1131FA08D2D90E0FC013197ED31F10508F0C7C0AB
S1131FB0E65DFF4F0C94D31D83E00E94B6138D2D74
S1131FC00E94B6138D2D90E0EC012496CE0112F4FC
S1131FD081509F4F892F0E94B613CE019078992388
S1131FE01CF401979F6F01960E94B613A8C084E069
S1131FF00E94B61382E00E94B6138C2D0E94B61381
S11320008C2D90E0EC012796CE0112F481509F4F65
S1132010892F0E94B613CE01907899231CF401975E
S11320209F6F01960E94B6138AC086E00E94B61381
S11320308D2D0E94B6138C2D0E94B6132FEFE2163D
S1132040F10409F038F480E00E94B6138E2D0E944A
S1132050B61306C081E00E94B6138E2D0E94B613FB
S11320608D2D90E006968C0D911D2FEFE21AF20A49
S1132070E80EF91EC701FF2014F481509F4F892FE9
S11320800E94B613C701907899231CF401979F6F9F
S113209001960E94B61353C087E00E94B6138CE0E9
S11320A00E94B61380E00E94B6138E2D0E94B613D0
S11320B080E00E94B6138B2D0E94B613EB0CF11C2A
S11320C084E1E80EF11CC701FF2014F481509F4FF6
S11320D0892F0E94B613C701907899231CF40197A5
S11320E09F6F01960E94B6132AC088E00E94B6131F
S11320F084E00E94B6138C2D0E94B61380E00E94E7
S1132100B61381E00E94B61380E00E94B61386E9FC
S11321100E94B6138C2D90E0EC01CC55DF4FCE011C
S113212012F481509F4F892F0E94B613CE019078EC
S113213099231CF401979F6F01960E94B613DF91B7
S1132140CF911F910F91FF90EF90DF90CF90BF90B0
S11321500895DC0117964C91179718969C9118973F
S1132160490F87E0840F873080F0FD01369650E0F8
S1132170495F5F4F4A0F5B1F20E030E09191290FC8
S1132180311DE417F507D1F702C020E030E0A80FB5
S1132190B11D4C9150E0542F442711968C91480F57
S11321A0511D81E04217530709F080E0089520E0B3
S11321B040E050E060E081E00E94B30F6CE080EF0B
S11321C093E00E94BA138091F903089520E040E05F
S11321D050E061E084E00E94B30F60E180EF93E09F
S11321E00E94BA138091F9030895813031F082304E
S11321F031F0833029F447EC03C041E001C045E6E7
S113220050E024E660E08CE00E94B30F6CE080EFC5
S113221093E00E94BA138091F903811109C080EF01
S113222093E00E94A91091E0811103C090E001C0E5
S113223090E0892F089520E040E050E0682F82E08C
S11322400E94B30F6CE080EF93E00E94BA13809178
S1132250F90308950F931F93CF93DF93813049F0CF
S1132260823061F0833071F40BE211E0C9ECD0E00C
S113227009C004E610E0C1E0D0E004C008EC10E0BE
S1132280C5E6D0E02196C017D10790F420E0AE0156
S113229061E087E00E94B30F6CE080EF93E00E945E
S11322A0BA138091F903882369F38C2F9D2F02C000
S11322B080E090E0DF91CF911F910F9108950E94EB
S11322C0D71081111AC080EF93E00E94A910982FB3
S11322D08823B1F081E00E941B11811110C080EFAE
S11322E093E00E94A910982F882351F00E94E610D1
S11322F091E0882329F090E003C090E001C090E0D1
S1132300892F08950F931F93CF93DF930E942A116F
S11323108C01892B09F442C0C1E0D1E00E94D7109E
S1132320811147C080EF93E00E94A9108823F1F146
S11323308D2F0E941B1181113CC0DF5F37C0CF5F1E
S1132340D53060F380EF93E00E94A910882329F12F
S113235020E040E050E060E085E00E94B30F6CE0D4
S113236080EF93E00E94BA138091F903811115C0A4
S113237080EF93E00E94A910882379F020E0A8015F
S113238062E086E00E94B30F6CE080EF93E00E946D
S1132390BA138091F903882319F00EC080E00CC0B1
S11323A081E00AC080E008C080E006C0C63138F28F
S11323B0F9CFC631C8F7F1CFDF91CF911F910F91BB
S11323C00895CF93C82F0E949E1388E70E94A713F5
S11323D080E80E94A7138C2F0E94A7130E94A413C5
S11323E0CF910895CF93C82F0E949E1388E70E942F
S11323F0A71380EC0E94A7138C2F0E94A7130E949E
S1132400A413CF9108952FEF84E39CE021508040E2
S11324109040E1F700C000000E949E1388E70E94EC
S1132420A71380E80E94A7138EEA0E94A71380E8EE
S11324300E94A71388EA0E94A71380E80E94A713AA
S11324408FE30E94A71380E80E94A71383ED0E94E4
S1132450A71380E80E94A71380E00E94A71380E8D6
S11324600E94A71380E40E94A71380E80E94A71388
S113247081EA0E94A71380E80E94A71388EC0E94B7
S1132480A71380E80E94A7138AED0E94A71380E88F
S11324900E94A71382E10E94A71380E80E94A71359
S11324A081E80E94A71380E80E94A71380E70E9496
S11324B0A71380E80E94A71384EA0E94A71380E868
S11324C00E94A71386EA0E94A71380E80E94A7131C
S11324D089ED0E94A71380E80E94A71381EF0E9450
S11324E0A71380E80E94A71385ED0E94A71380E834
S11324F00E94A71380E80E94A71380E80E94A713F4
S11325008DE80E94A71380E80E94A71384E10E942B
S1132510A71380E80E94A7138BED0E94A71380E8FD
S11325200E94A71380E40E94A71380E80E94A713C7
S113253080E20E94A71380E00E94A71380E80E9413
S1132540A7138FEA0E94A7130E94A4130895CF93A0
S1132550C82F683020F480EB860F0E94E1118C2F85
S113256082958F7080610E94E1118C2F8E70816042
S11325700E94E111CF910895CF93DF9367E080E04B
S11325800E94A7120E949E1388E70E94A71380E46A
S11325900E94A713C0E0D4E080E00E94A713219713
S11325A0D9F70E94A413DF91CF910895CF93682F98
S11325B080E00E94A7120E949E1388E70E94A7133E
S11325C080E40E94A713C0E080E00E94A713CF5FBD
S11325D0C038D1F70E94A413CF910895803108F038
S11325E085E1683008F067E0982F990F890F880F0C
S11325F00E94A71208950F931F93CF93DF93803205
S113260058F091E8980F913448F0C0EEC80FCF35D8
S113261030F0CFE9C80F03C0C0E001C0C0E08C2F88
S113262090E0EC01CC0FDD1FCC0FDD1FC80FD91FCC
S11326308E010B5F1F4FCE010E94E8010E94F21130
S11326402196C017D107B9F780E00E94F211DF91FB
S1132650CF911F910F9108950F931F93CF93DF9301
S1132660D62F8A010E94EE12F8018081811113C0D5
S11326701DC0C53188F0D73038F060E080E00E949A
S1132680EE12C0E0D0E008C0DF5F6D2F80E00E9452
S1132690EE12C0E001C0C0E0F80181918F010E94F8
S11326A0FB12CF5FF80180818111E3CFDF91CF91DD
S11326B01F910F9108958091D90308959093DA039F
S11326C08093D90308958EB588608EBD89B78061E3
S11326D089BF88E98BBD86E98ABD8EB585608EBDCC
S11326E008951F920F920FB60F9211242F933F93C8
S11326F08F939F932091D9033091DA0380916600E0
S1132700909167008217930720F41092DA031092D5
S1132710D9038091D9039091DA0301969093DA0357
S11327208093D9039F918F913F912F910F900FBE6A
S11327300F901F90189580E280B9089584EA86BFAF
S113274006B607FEFDCF089584E986BF089583B9D0
S113275084E886BF06B607FEFDCF089590BD89B90B
S113276088E18AB9599A86E880BD08955D9BFECFB9
S11327708CB90895662379F0FC016150262F30E06E
S11327802F5F3F4F280F391F5F9BFECF9CB1919362
S1132790E217F307C9F70895399838988FE19EE452
S11327A00197F1F700C000000E94E7009093340401
S11327B0809333043898399A8FE19EE40197F1F7B6
S11327C000C000000E94E700909326048093250433
S11327D03998389A8FE19EE40197F1F700C0000020
S11327E00E94E70090932A0480932904089520917D
S11327F033043091340480913704909138042817BD
S1132800390720F481E08093DE03DB9A809125046C
S1132810909126042091330430913404821B930B4D
S113282020912704309128048217930720F481E033
S11328308093DE03DB9A8091290490912A042091ED
S1132840250430912604821B930B2091350430918A
S113285036048217930720F481E08093DE03DB9A29
S113286008958091DE03813009F045C0209133043E
S11328703091340480913D0490913E048217930773
S113288028F481E08093DD03C19A03C01092DD0334
S1132890C1988091250490912604209133043091AD
S11328A03404821B930B2091430430914404281771
S11328B0390728F481E08093DC03C09A03C01092A6
S11328C0DC03C0988091290490912A042091250466
S11328D030912604821B930B2091310430913204F1
S11328E02817390728F481E08093DB03C29A0895FE
S11328F01092DB03C29808958091DE03811109C010
S1132900B39910C0B39BFECFDB9A81E08093DE03C2
S11329100895813039F4B39905C0B39BFECFDB9899
S11329201092DE0308958091DE038823B9F020918C
S1132930290430912A0480912B0490912C0482174D
S1132940930760F4DB981092DE03C198C098C29894
S11329501092DD031092DC031092DB0308958F9232
S11329609F92AF92BF92CF92DF92EF92FF92CF935A
S1132970DF936B017C01C42F0E94CC13C23059F049
S1132980C330B1F0C13009F560913304709134045F
S1132990C0E2D3E01EC060912504709126048091AA
S11329A0330490913404681B790BC4E2D3E011C062
S11329B06091290470912A04809125049091260441
S11329C0681B790BC8E2D3E004C060E070E0C0E0AB
S11329D0D0E080E090E00E945B19A70196010E947C
S11329E0B3184B015C010E9425196B017C01CE01D7
S11329F00E94D801B60180E090E00E945B199B011F
S1132A00AC01C501B4010E94461820E030E44CE159
S1132A1056E40E94E9190E942C19CE0102960E94E4
S1132A20D801DF91CF91FF90EF90DF90CF90BF90CE
S1132A30AF909F908F900895CF92DF92EF92FF9284
S1132A40CF93DF9380E293E00E94E801EC0182E2FD
S1132A5093E00E94E801BC0180E090E00E945B19D1
S1132A6020E030E44CE156E40E94B3186B017C0191
S1132A70BE0180E090E00E945B199B01AC01C7019C
S1132A80B6010E94471860932D0470932E0480931E
S1132A902F049093300484E293E00E94E801EC0157
S1132AA086E293E00E94E801BC0180E090E00E948D
S1132AB05B1920E030E44CE156E40E94B3186B014A
S1132AC07C01BE0180E090E00E945B199B01AC0197
S1132AD0C701B6010E944718609321047093220431
S1132AE0809323049093240488E293E00E94E801F5
S1132AF0EC018AE293E00E94E801BC0180E090E0EE
S1132B000E945B1920E030E44CE156E40E94B318C3
S1132B106B017C01BE0180E090E00E945B199B0187
S1132B20AC01C701B6010E94471860933904709341
S1132B303A0480933B0490933C048CE293E00E941B
S1132B40D101C82F8DE293E00E94D101682F70E07B
S1132B5080E090E00E945D1920E030E048EC52E40F
S1132B600E94B3186B017C016C2F70E080E090E050
S1132B700E945D199B01AC01C701B6010E94471870
S1132B8060934504709346048093470490934804EB
S1132B908EE293E00E94D101C82F8FE293E00E945D
S1132BA0D101682F70E080E090E00E945D1920E080
S1132BB030E048EC52E40E94B3186B017C016C2FA6
S1132BC070E080E090E00E945D199B01AC01C701B8
S1132BD0B6010E94471860933F04709340048093A9
S1132BE0410490934204DF91CF91FF90EF90DF90E6
S1132BF0CF9008954F925F926F927F928F929F929F
S1132C00AF92BF92CF92DF92EF92FF92CF93DF9376
S1132C1000D000D0CDB7DEB70E941C1540902D0423
S1132C2050902E0460902F0470903004C09045049E
S1132C30D0904604E0904704F0904804A701960120
S1132C40C301B2010E94E9190E942C19709338043F
S1132C50609337048090210490902204A090230470
S1132C60B0902404A5019401C701B6010E94E9199A
S1132C700E942C19709328046093270480913904CE
S1132C8090913A04A0913B04B0913C0489839A83C7
S1132C90AB83BC839C01AD01C701B6010E94E91955
S1132CA00E942C197093360460933504C0903F043D
S1132CB0D0904004E0904104F0904204A7019601B2
S1132CC0C301B2010E94E9190E942C192B013C0195
S1132CD070933E0460933D04A7019601C501B401BD
S1132CE00E94E9190E942C194B015C017093440461
S1132CF060934304A701960169817A818B819C8149
S1132D000E94E9190E942C197093320460933104D3
S1132D10840C951C680D791D80E090E00E945B197D
S1132D2024EA30E74DE75FE30E94E9190E942C1979
S1132D3070932C0460932B040F900F900F900F90BE
S1132D40DF91CF91FF90EF90DF90CF90BF90AF9045
S1132D509F908F907F906F905F904F9008950E9406
S1132D60CC130E947C140E94F7130E9431140E9419
S1132D70931408958F929F92AF92BF92CF92DF9255
S1132D80EF92FF928230B1F018F4813031F085C0B7
S1132D90833019F18430A1F180C0C0902D04D0900B
S1132DA02E04E0902F04F09030046091330470916D
S1132DB0340478C0C0902104D0902204E09023040D
S1132DC0F0902404609125047091260480913304CA
S1132DD090913404681B790B65C0C0903904D0907D
S1132DE03A04E0903B04F0903C0460912904709113
S1132DF02A048091250490912604681B790B52C003
S1132E00E0903304F0903404C0902504D09026045C
S1132E10B6016E197F0980E090E00E945B19209151
S1132E2021043091220440912304509124040E94EF
S1132E30B3184B015C01B70180E090E00E945B197C
S1132E4020912D0430912E0440912F045091300490
S1132E500E94B3189B01AC01C501B4010E9447183C
S1132E604B015C016091290470912A046C197D095D
S1132E7080E090E00E945B192091390430913A047B
S1132E8040913B0450913C040E94B3189B01AC0157
S1132E90C501B4010E9447180DC0C12CD12C760184
S1132EA060E070E080E090E00E945B19A701960169
S1132EB00E94B318FF90EF90DF90CF90BF90AF9037
S1132EC09F908F9008958091DE030895823039F0A9
S1132ED0833041F0813049F48091DD03089580917D
S1132EE0DC0308958091DB03089580E00895CF9278
S1132EF0DF92EF92FF926B017C014130B9F40E94A2
S1132F00AF14609133047091340480E090E00E9427
S1132F105B19A70196010E94B31860932D04709366
S1132F202E0480932F04909330043DC04230E9F482
S1132F300E94AF146091250470912604809133049B
S1132F4090913404681B790B80E090E00E945B1937
S1132F50A70196010E94B318609321047093220480
S1132F6080932304909324041EC04330E1F40E9410
S1132F70AF146091290470912A04809125049091E2
S1132F802604681B790B80E090E00E945B19A7017E
S1132F9096010E94B3186093390470933A048093A5
S1132FA03B0490933C04FF90EF90DF90CF90089502
S1132FB08F929F92AF92BF92CF92DF92EF92FF9245
S1132FC04B015C010E9425196B017C018CE293E0AA
S1132FD00E94C901B6017727072E000C880B990BB4
S1132FE00E945D199B01AC01C501B4010E94461801
S1132FF020E030E048EC52E40E94E9190E942C19C8
S11330008DE293E00E94C9010E94FA15FF90EF90AF
S1133010DF90CF90BF90AF909F908F9008958F9244
S11330209F92AF92BF92CF92DF92EF92FF924B01A9
S11330305C010E9425196B017C018EE293E00E94E1
S1133040C901B6017727072E000C880B990B0E9443
S11330505D199B01AC01C501B4010E94461820E032
S113306030E048EC52E40E94E9190E942C198FE2E6
S113307093E00E94C9010E94FA15FF90EF90DF903F
S1133080CF90BF90AF909F908F9008955058BB27DA
S1133090AA270E945E180C94AF190E94A11938F057
S11330A00E94A81920F039F49F3F19F426F40C94D7
S11330B09E190EF4E095E7FB0C949819E92F0E94F1
S11330C0C01958F3BA17620773078407950720F0ED
S11330D079F4A6F50C94E2190EF4E0950B2EBA2FB0
S11330E0A02D0B01B90190010C01CA01A00111240A
S11330F0FF27591B99F0593F50F4503E68F11A16B6
S1133100F040A22F232F342F4427585FF3CF469546
S113311037952795A795F0405395C9F77EF41F1668
S1133120BA0B620B730B840BBAF09150A1F0FF0F32
S1133130BB1F661F771F881FC2F70EC0BA0F621F1E
S1133140731F841F48F4879577956795B795F7950E
S11331509E3F08F0B0CF9395880F08F09927EE0FA3
S11331609795879508950E94C7180C94AF190E94EB
S1133170A81958F00E94A11940F029F45F3F29F0E2
S11331800C94981951110C94E3190C949E190E94F3
S1133190C01968F39923B1F3552391F3951B550B8B
S11331A0BB27AA2762177307840738F09F5F5F4F16
S11331B0220F331F441FAA1FA9F335D00E2E3AF055
S11331C0E0E832D091505040E695001CCAF72BD06D
S11331D0FE2F29D0660F771F881FBB1F26173707BE
S11331E04807AB07B0E809F0BB0B802DBF01FF27F0
S11331F093585F4F3AF09E3F510578F00C9498191C
S11332000C94E3195F3FE4F3983ED4F386957795E5
S11332106795B795F7959F5FC9F7880F911D9695A8
S1133220879597F90895E1E0660F771F881FBB1F04
S1133230621773078407BA0720F0621B730B840BB1
S1133240BA0BEE1F88F7E09508950E942C19689434
S1133250B1110C94E31908950E94C81988F09F577E
S113326098F0B92F9927B751B0F0E1F0660F771FA6
S1133270881F991F1AF0BA95C9F714C0B13091F09C
S11332800E94E219B1E008950C94E219672F782F97
S11332908827B85F39F0B93FCCF386957795679561
S11332A0B395D9F73EF490958095709561957F4FCD
S11332B08F4F9F4F0895E89409C097FB3EF4909573
S11332C08095709561957F4F8F4F9F4F9923A9F0FB
S11332D0F92F96E9BB279395F6958795779567958A
S11332E0B795F111F8CFFAF4BB0F11F460FF1BC0CE
S11332F06F5F7F4F8F4F9F4F16C0882311F096E961
S113330011C0772321F09EE8872F762F05C066230E
S113331071F096E8862F70E060E02AF09A95660FC7
S1133320771F881FDAF7880F9695879597F9089580
S113333097F99F6780E870E060E008959FEF80EC64
S1133340089500240A941616170618060906089507
S113335000240A9412161306140605060895092E6D
S11333600394000C11F4882352F0BB0F40F4BF2BDC
S113337011F460FF04C06F5F7F4F8F4F9F4F08951C
S113338057FD9058440F551F59F05F3F71F0479512
S1133390880F97FB991F61F09F3F79F087950895F7
S11333A0121613061406551FF2CF4695F1DF08C016
S11333B0161617061806991FF1CF86957105610533
S11333C008940895E894BB2766277727CB0197F9DB
S11333D008950E94FC190C94AF190E94A11938F0A9
S11333E00E94A81920F0952311F00C9498190C94BC
S11333F09E1911240C94E3190E94C01970F3959F2F
S1133400C1F3950F50E0551F629FF001729FBB27D7
S1133410F00DB11D639FAA27F00DB11DAA1F649F73
S11334206627B00DA11D661F829F2227B00DA11D26
S1133430621F739FB00DA11D621F839FA00D611DAC
S1133440221F749F3327A00D611D231F849F600DCD
S1133450211D822F762F6A2F11249F5750409AF0F6
S1133460F1F088234AF0EE0FFF1FBB1F661F771F82
S1133470881F91505040A9F79E3F510580F00C944D
S113348098190C94E3195F3FE4F3983ED4F38695BE
S113349077956795B795F795E7959F5FC1F7FE2BED
S11334A0880F911D9695879597F90895A0E1B0E04E
S11334B0ECE5FAE10C94E81D7C011B016A01FC01B6
S11334C017821682838181FF44C39E012F5F3F4F81
S11334D03901F7019381F10193FD859193FF819166
S11334E01F01882309F431C3853239F493FD859192
S11334F093FF81911F01853239F4B70190E00E9456
S11335000D1F56016501E5CF10E0512C912CFFE110
S1133510F915D8F08B3279F038F4803279F08332AF
S1133520A1F4F92DF0612EC08D3261F0803369F47D
S1133530292D21602DC0392D3260932E892D846070
S1133540982E2AC0E92DE86015C097FC2DC020ED07
S1133550280F2A3088F496FE06C03AE0139F200D07
S11335601124122F19C08AE0589E200D1124522EC6
S1133570E92DE0629E2E10C08E3231F496FCE5C235
S1133580F92DF0649F2E08C08C3621F4292D206873
S1133590922E02C0883641F4F10193FD859193FF88
S11335A081911F018111B3CF9BEB980F933020F4CD
S11335B0992D9061805E07C09BE9980F933008F0C5
S11335C066C1992D9F7E96FF16E09F73992E8536CE
S11335D019F49064992E08C0863621F4392F306886
S11335E0932E02C01111115097FE07C01C3350F4E2
S11335F044244394410E27E00BC0183038F027E0F0
S113360017E005C027E09CE3492E02C0212F412C7E
S1133610560184E0A80EB11CF6016081718182819B
S11336209381042DA3010E941F1E6C01F981FC8764
S1133630F0FF02C0F3FF06C091FC06C092FE06C074
S113364000E205C00DE203C00BE201C000E08C857E
S11336508C7019F001115AC29BC297FE10C04C0C19
S1133660FC85F4FF04C08A81813309F44A9414145C
S113367074F528E0241578F588E0482E2CC096FCD3
S11336802AC0812F90E08C159D059CF03CEFC31659
S11336903FEFD30674F0892D8068982E0AC0E2E0CB
S11336A0F0E0EC0FFD1FE10FF11D8081803319F470
S11336B011501111F4CF97FE0EC044244394410ECF
S11336C0812F90E0C816D9062CF41C1904C0442498
S11336D0439401C010E097FE06C01C141D0434F48A
S11336E0C601019605C085E090E002C081E090E04B
S11336F001110196112331F0212F30E02F5F3F4F4C
S1133700820F931F252D30E08217930714F4581A63
S113371001C0512C892D897049F4552039F0B70125
S113372080E290E00E940D1F5A94F7CF002329F005
S1133730B701802F90E00E940D1F93FC09C0552013
S113374039F0B70180E390E00E940D1F5A94F7CF3F
S113375097FE4CC04601D7FE02C0812C912CC601B5
S113376088199909F301E80FF91FFE87ED8796017F
S113377024193109388B2F87012F10E011950195F9
S113378011093FEF8316930629F4B7018EE290E006
S11337900E940D1FC814D9044CF08F859889881590
S11337A0990524F4ED85FE85818101C080E3F1E073
S11337B08F1A91082D853E852F5F3F4F3E872D87B9
S11337C0801691062CF0B70190E00E940D1FD9CF0E
S11337D0C814D90441F49A81963320F4953319F42A
S11337E03C8534FF81E3B70190E04EC08A81813388
S11337F019F09C859F7E9C87B70190E00E940D1F65
S1133800111105C094FC18C085E690E017C0B701FB
S11338108EE290E00E940D1F1E5F82E001E0080F1F
S1133820F301E80FF11D8081B70190E00E940D1FA4
S1133830802F0113F3CFE6CF85E490E0B7010E9417
S11338400D1FD7FC06C0C114D10441F4EC85E4FF7C
S113385005C0D194C194D1088DE201C08BE2B701B7
S113386090E00E940D1F80E32AE0C216D1042CF0E0
S11338708F5FFAE0CF1AD108F7CFB70190E00E942A
S11338800D1FB701C601C0960E940D1F54C1833697
S113389031F0833779F0833509F056C020C05601E2
S11338A032E0A30EB11CF6018081898301E010E0AF
S11338B0630112C05601F2E0AF0EB11CF601C080E4
S11338C0D18096FE03C0612F70E002C06FEF7FEFDE
S11338D0C6010E94021F8C01F92DFF7714C0560106
S11338E022E0A20EB11CF601C080D18096FE03C076
S11338F0612F70E002C06FEF7FEFC6010E94F71ED8
S11339008C01F92DF0689F2EF3FD1AC0852D90E0EF
S113391008171907A8F4B70180E290E00E940D1F70
S11339205A94F4CFF60197FC859197FE81916F012B
S1133930B70190E00E940D1F51105A9401501109D3
S11339400115110579F7F7C0843611F0893661F550
S1133950560197FE09C024E0A20EB11CF601608155
S11339607181828193810AC0F2E0AF0EB11CF6012D
S113397060817181072E000C880B990BF92DFF765D
S11339809F2E97FF09C090958095709561957F4F04
S11339908F4F9F4FF0689F2E2AE030E0A3010E94D2
S11339A06B1FC82EC6183FC0092D853721F40F7E22
S11339B02AE030E01DC0097F8F3691F018F4883575
S11339C059F0C3C0803719F0883711F0BEC00061C8
S11339D004FF09C0046007C094FE08C0066006C066
S11339E028E030E005C020E130E002C020E132E010
S11339F0560107FF09C084E0A80EB11CF6016081DE
S1133A0071818281938108C0F2E0AF0EB11CF6018E
S1133A106081718180E090E0A3010E946B1FC82E39
S1133A20C6180F77902E96FE0BC0092D0E7FC11677
S1133A3050F494FE0AC092FC08C0092D0E7E05C005
S1133A40DC2C092D03C0DC2C01C0D12E04FF0DC0D9
S1133A50FE01EC0DF11D8081803311F4097E09C053
S1133A6002FF06C0D394D39404C0802F867809F053
S1133A70D39403FD11C000FF06C01C2DD51480F49F
S1133A80150D1D190DC0D51458F4B70180E290E04E
S1133A900E940D1FD394F7CFD51410F45D1801C004
S1133AA0512C04FF10C0B70180E390E00E940D1F69
S1133AB002FF17C001FD03C088E790E002C088E55B
S1133AC090E0B7010CC0802F867859F001FF02C046
S1133AD08BE201C080E207FD8DE2B70190E00E9415
S1133AE00D1FC11638F4B70180E390E00E940D1F4A
S1133AF01150F7CFCA94F301EC0DF11D8081B70189
S1133B0090E00E940D1FC110F5CF15C0F4E0F5152B
S1133B1060F584E0581A93FE1FC0011127C02C855C
S1133B2023FF2AC00EE810E0392D3071932EF801DE
S1133B308491811124C0552009F4E4CCB70180E2BA
S1133B4090E00E940D1F5A94F6CFF7018681978169
S1133B5026C08FEF9FEF23C0B70180E290E00E9460
S1133B600D1F5A945110F8CFD8CF512CB701802F84
S1133B7090E00E940D1FD3CF02E910E0D5CF911041
S1133B808052B70190E00E940D1F0F5F1F4FCFCFEF
S1133B9023E0251510F483E0BDCF512CC0CF6096EF
S1133BA0E2E10C94041EEE0FFF1F0590F491E02D4A
S1133BB00994A29FB001B39FC001A39F700D811D02
S1133BC01124911DB29F700D811D1124911D089522
S1133BD02F923F924F925F926F927F928F929F9219
S1133BE0AF92BF92CF92DF92EF92FF920F931F9307
S1133BF0CF93DF93CDB7DEB7CA1BDB0B0FB6F894B8
S1133C00DEBF0FBECDBF09942A88398848885F84F7
S1133C106E847D848C849B84AA84B984C884DF8068
S1133C20EE80FD800C811B81AA81B981CE0FD11D4C
S1133C300FB6F894DEBF0FBECDBFED010895283056
S1133C4008F027E03327DA01990F311D87FD9160D1
S1133C5000966105710539F432602E5F3D9330E3BF
S1133C602A95E1F708959F3F30F08038710561058A
S1133C7009F03C5F3C5F3D93913008F08068911DF2
S1133C80DF93CF931F930F93FF92EF92192F987F97
S1133C909695E92F96959695E90FFF27E051FF4FEA
S1133CA099273327EE24FF24A701E7010590089400
S1133CB0079428F4360FE71EF81E491F511D660F9E
S1133CC0771F881F991F0694A1F70590079428F47D
S1133CD0E70EF81E491F561FC11D770F881F991F35
S1133CE0661F0694A1F70590079428F4F80E491F5F
S1133CF0561FC71FD11D880F991F661F771F069473
S1133D00A1F70590079420F4490F561FC71FD81F29
S1133D10990F661F771F881F0694A9F78491109541
S1133D20177041F0D695C79557954795F794E79442
S1133D301A95C1F7E6E9F0E068941590159135916C
S1133D406591959105907FE27395E118F10A430B13
S1133D50560BC90BD009C0F7E10CF11E431F561FC7
S1133D60C91FD01D7EF4703311F48A95E6CFE89410
S1133D70015030F0080F0AF40027021708F4202F2E
S1133D802395022F7A3328F079E37D932A95E9F776
S1133D9010C07D932A9589F6069497956795379573
S1133DA017951794E118F10A430B560BC90BD00968
S1133DB098F023957E9173957A3308F070E37C93A1
S1133DC02013B8F77E9170617D9330F0839571E391
S1133DD07D9370E32A95E1F71124EF90FF900F9102
S1133DE01F91CF91DF91992787FD90950895FC014C
S1133DF00590615070400110D8F7809590958E0F12
S1133E009F1F0895FC016150704001900110D8F784
S1133E10809590958E0F9F1F08950F931F93CF93B6
S1133E20DF93FB01238121FD03C08FEF9FEF2CC0A3
S1133E3022FF16C0468157812481358142175307DA
S1133E4044F4A081B1819D012F5F3F4F31832083D2
S1133E508C93268137812F5F3F4F3783268314C08D
S1133E608B01EC01FB010084F185E02D0995892B80
S1133E70E1F6D80116968D919C91179701961796A5
S1133E809C938E931697CE01DF91CF911F910F9142
S1133E900895AEE0B0E0EFE4FFE10C94F61D0D8967
S1133EA01E8986E08C831A8309838FEF9FE79E83A4
S1133EB08D83AE01475E5F4F6F89788DCE01019689
S1133EC00E94561AEF81F885E00FF11F10822E969A
S1133ED0E4E00C94121EFA01AA27283051F1203193
S1133EE081F1E8946F936E7F6E5F7F4F8F4F9F4F8A
S1133EF0AF4FB1E03ED0B4E03CD0670F781F891FCC
S1133F009A1FA11D680F791F8A1F911DA11D6A0F99
S1133F10711D811D911DA11D20D009F468943F914C
S1133F202AE0269F11243019305D3193DEF6CF014B
S1133F300895462F4770405D4193B3E00FD0C9F711
S1133F40F6CF462F4F70405D4A3318F0495D31FD7E
S1133F504052419302D0A9F7EACFB4E0A6959795D1
S1133F60879577956795BA95C9F7009761057105A7
S1133F7008959B01AC010A2E0694579547953795F1
S1133F802795BA95C9F7620F731F841F951FA01D4B
S1093F900895F894FFCF30
S1133F96EF01FFFFFFFFE803C7E0ECEEEA20E7E0EE
S1133FA6EAF0FBF200C7E0ECEEEA20EEF2EAF0FB00
S1133FB6F200C4E2E5F0FC20EEF2EAF0FBF2E000E7
S1133FC6C4E2E5F0FC20E7E0EAF0FBF2E000E7E01B
S1133FD6EFF3F1EAE0E5EC20EFF0EEE3F300CEF2E6
S1133FE6EFE5F7E0F2EEEA20EDE520EEEFEEE7EDA1
S1133FF6E0ED00CEF2EFE5F7E0F2EEEA20EEEFEECA
S1134006E7EDE0ED20202000D1EAE0EDE5F020EE3A
S1134016F2EAEBFEF7E5ED202020202000252E32E3
S1134026664200C131203D00C132203D00C133202B
S11340363D0055203D00E7E0F0FFE42000E1E0E923
S1134046EFE0F10020202020202000F0E0E7F0FF40
S1134056E400256400E2E2E5E4E8F2E520EFE0F0BE
S1134066EEEBFC00303030002A00CFE0F0EEEBFC43
S113407620E2E5F0EDFBE900CFE0F0EEEBFC20ED0D
S1134086E520E2E5F0EDFBE900F3F1F2E0EDEEE226
S1134096E8F2FC20EFE0F0EEEBFC00D1EEF5F0E008
S11340A6EDE8F2FC20EFE0F0EEEBFC3F00C4E03F6D
S11340B600CDE5F23F00EFE0F0EEEBFC20F1EEF58B
S11340C6F0E0EDE5ED00EFE0F0EEEBFC20EDE520B1
S11340D6F1EEF5F0E0EDE5ED00CAEEEDE5F7EDEE17
S11340E6E520EDE0EFF0FFE6E5EDE8E500252E320C
S11340F66600EDE0EFF0FFE6E5EDE8E520E1E0F24D
S11341063100EDE0EFF0FFE6E5EDE8E520E1E0F271
S11341163200EDE0EFF0FFE6E5EDE8E520E1E0F260
S11341263300CCC5CDDE20C0D6CF00CDE0EFF0FF06
S1134136E6E5EDE8E520F0E0E7F0FFE4E00048E03E
S1134146EFF0FFE6E5EDE8E520E7E0F0FFE4E00068
S1134156CAE0EBE8E1F0EEE2E0F2FC20C1C0D231C5
S113416600CAE0EBE8E1F0EEE2E0F2FC20C1C0D2E6
S11341763200CAE0EBE8E1F0EEE2E0F2FC20C1C076
S1134186D23300C2DBD5CEC400E4EEE1E0E2E8F2CD
S1134196FC20EEF2EFE5F7E0F2EEEA00E220E1E8D9
S11341A6E1EBE8EEF2E5EAF300F3E4E0F7EDEE2006
S11341B6E4EEE1E0E2EBE5ED202000EEF8E8E1EAEA
S11341C6E020E4EEE1E0E2EBE5EDE8FF00F3E4E015
S11341D6EBE8F2FC20E1E8E1EBE8EEF2E5EAF300D5
S11341E6E1E8E1EBE8EEF2E5EAE020F3E4E0EBE512
S11341F6EDE000EEF8E8E1EAE020F3E4E0EBE5EDDB
S1134206E8FF20202000CCC5CDDE20CED2CFC5D7F6
S1134216C0D2CACEC200C4EEE1E0E2E8F2FC20EE6F
S1134226F2EFE5F7E0F2EEEA00D3E4E0EBE8F2FCC5
S113423620EEF2EFE5F7E0F2EAE800C8E7ECE5ED98
S1134246E8F2FC20EFE0F0EEEBFC00F2E0E9ECE54E
S1134256F020E4E2E5F0E800ECE8ED00F1E5EA0040
S1134266CDC0D1D2D0CEC9CAC020D2C0C9CCC5D047
S1134276C000D2E0E9ECE5F020EDE020E4E2E5F070
S1134286FC00D2E0E9ECE5F020E4E2E5F0E820E227
S1134296EAEB00D2E0E9ECE5F020E4E2E5F0E82020
S11342A6E2FBEAEB00D2E0E9ECE5F020E2EAEBFE21
S11342B6F7E5ED00D2E0E9ECE5F020EEF2EAEBFEFC
S11342C6F7E5ED00CCC5CDDE00CCE5EDFE20EEF243
S11342D6EFE5F7E0F2EAEEE200CCE5EDFE20C0D62B
S11342E6CF00CDE0F1F2F0EEE9EAE820F2E0E9EC05
S11342F6E5F0E000D1ECE5EDE020EFE0F0EEEBFFD9
S10543060000B1
S9030000FC
